{
  "_format": "hh-sol-artifact-1",
  "contractName": "Assessment",
  "sourceName": "contracts/Assessment.sol",
  "abi": [
    {
      "inputs": [
        {
          "internalType": "uint256",
          "name": "initBalance",
          "type": "uint256"
        }
      ],
      "stateMutability": "payable",
      "type": "constructor"
    },
    {
      "inputs": [
        {
          "internalType": "uint256",
          "name": "balance",
          "type": "uint256"
        },
        {
          "internalType": "uint256",
          "name": "withdrawAmount",
          "type": "uint256"
        }
      ],
      "name": "InsufficientBalance",
      "type": "error"
    },
    {
      "anonymous": false,
      "inputs": [
        {
          "indexed": false,
          "internalType": "uint256",
          "name": "previousBalance",
          "type": "uint256"
        },
        {
          "indexed": false,
          "internalType": "uint256",
          "name": "newBalance",
          "type": "uint256"
        }
      ],
      "name": "BalanceMultiplied",
      "type": "event"
    },
    {
      "anonymous": false,
      "inputs": [
        {
          "indexed": false,
          "internalType": "uint256",
          "name": "amount",
          "type": "uint256"
        }
      ],
      "name": "Deposit",
      "type": "event"
    },
    {
      "anonymous": false,
      "inputs": [
        {
          "indexed": true,
          "internalType": "address",
          "name": "previousOwner",
          "type": "address"
        },
        {
          "indexed": true,
          "internalType": "address",
          "name": "newOwner",
          "type": "address"
        }
      ],
      "name": "OwnershipTransferred",
      "type": "event"
    },
    {
      "anonymous": false,
      "inputs": [
        {
          "indexed": false,
          "internalType": "uint256",
          "name": "amount",
          "type": "uint256"
        }
      ],
      "name": "Withdraw",
      "type": "event"
    },
    {
      "inputs": [],
      "name": "balance",
      "outputs": [
        {
          "internalType": "uint256",
          "name": "",
          "type": "uint256"
        }
      ],
      "stateMutability": "view",
      "type": "function"
    },
    {
      "inputs": [
        {
          "internalType": "uint256",
          "name": "_amount",
          "type": "uint256"
        }
      ],
      "name": "deposit",
      "outputs": [],
      "stateMutability": "payable",
      "type": "function"
    },
    {
      "inputs": [],
      "name": "getBalance",
      "outputs": [
        {
          "internalType": "uint256",
          "name": "",
          "type": "uint256"
        }
      ],
      "stateMutability": "view",
      "type": "function"
    },
    {
      "inputs": [
        {
          "internalType": "uint256",
          "name": "_multiplier",
          "type": "uint256"
        }
      ],
      "name": "multiplyBalance",
      "outputs": [],
      "stateMutability": "nonpayable",
      "type": "function"
    },
    {
      "inputs": [],
      "name": "owner",
      "outputs": [
        {
          "internalType": "address payable",
          "name": "",
          "type": "address"
        }
      ],
      "stateMutability": "view",
      "type": "function"
    },
    {
      "inputs": [
        {
          "internalType": "address payable",
          "name": "_newOwner",
          "type": "address"
        }
      ],
      "name": "transferOwnership",
      "outputs": [],
      "stateMutability": "nonpayable",
      "type": "function"
    },
    {
      "inputs": [
        {
          "internalType": "uint256",
          "name": "_withdrawAmount",
          "type": "uint256"
        }
      ],
      "name": "withdraw",
      "outputs": [],
      "stateMutability": "nonpayable",
      "type": "function"
    }
  ],
  "bytecode": "0x6080604052604051610b89380380610b89833981810160405281019061002591906100ad565b336000806101000a81548173ffffffffffffffffffffffffffffffffffffffff021916908373ffffffffffffffffffffffffffffffffffffffff16021790555080600181905550506100da565b600080fd5b6000819050919050565b61008a81610077565b811461009557600080fd5b50565b6000815190506100a781610081565b92915050565b6000602082840312156100c3576100c2610072565b5b60006100d184828501610098565b91505092915050565b610aa0806100e96000396000f3fe6080604052600436106100705760003560e01c80638da5cb5b1161004e5780638da5cb5b146100f2578063b69ef8a81461011d578063b6b55f2514610148578063f2fde38b1461016457610070565b80630ac543de1461007557806312065fe01461009e5780632e1a7d4d146100c9575b600080fd5b34801561008157600080fd5b5061009c6004803603810190610097919061071e565b61018d565b005b3480156100aa57600080fd5b506100b3610297565b6040516100c0919061075a565b60405180910390f35b3480156100d557600080fd5b506100f060048036038101906100eb919061071e565b6102a1565b005b3480156100fe57600080fd5b506101076103f2565b60405161011491906107b6565b60405180910390f35b34801561012957600080fd5b50610132610416565b60405161013f919061075a565b60405180910390f35b610162600480360381019061015d919061071e565b61041c565b005b34801561017057600080fd5b5061018b600480360381019061018691906107fd565b610522565b005b60008054906101000a900473ffffffffffffffffffffffffffffffffffffffff1673ffffffffffffffffffffffffffffffffffffffff163373ffffffffffffffffffffffffffffffffffffffff161461021b576040517f08c379a0000000000000000000000000000000000000000000000000000000008152600401610212906108ad565b60405180910390fd5b60006001549050816001600082825461023491906108fc565b92505081905550818161024791906108fc565b600154146102585761025761093e565b5b7ffebafc5a53ca78335ebc9acfbac034f0e5d928c59dc8b5e72c16a164f5c11e428160015460405161028b92919061096d565b60405180910390a15050565b6000600154905090565b60008054906101000a900473ffffffffffffffffffffffffffffffffffffffff1673ffffffffffffffffffffffffffffffffffffffff163373ffffffffffffffffffffffffffffffffffffffff161461032f576040517f08c379a0000000000000000000000000000000000000000000000000000000008152600401610326906108ad565b60405180910390fd5b6000600154905081600154101561038157600154826040517fcf47918100000000000000000000000000000000000000000000000000000000815260040161037892919061096d565b60405180910390fd5b81600160008282546103939190610996565b9250508190555081816103a69190610996565b600154146103b7576103b661093e565b5b7f5b6b431d4476a211bb7d41c20d1aab9ae2321deee0d20be3d9fc9b1093fa6e3d826040516103e6919061075a565b60405180910390a15050565b60008054906101000a900473ffffffffffffffffffffffffffffffffffffffff1681565b60015481565b6000600154905060008054906101000a900473ffffffffffffffffffffffffffffffffffffffff1673ffffffffffffffffffffffffffffffffffffffff163373ffffffffffffffffffffffffffffffffffffffff16146104b1576040517f08c379a00000000000000000000000000000000000000000000000000000000081526004016104a8906108ad565b60405180910390fd5b81600160008282546104c391906109ca565b9250508190555081816104d691906109ca565b600154146104e7576104e661093e565b5b7f4d6ce1e535dbade1c23defba91e23b8f791ce5edc0cc320257a2b364e4e3842682604051610516919061075a565b60405180910390a15050565b60008054906101000a900473ffffffffffffffffffffffffffffffffffffffff1673ffffffffffffffffffffffffffffffffffffffff163373ffffffffffffffffffffffffffffffffffffffff16146105b0576040517f08c379a00000000000000000000000000000000000000000000000000000000081526004016105a7906108ad565b60405180910390fd5b600073ffffffffffffffffffffffffffffffffffffffff168173ffffffffffffffffffffffffffffffffffffffff160361061f576040517f08c379a000000000000000000000000000000000000000000000000000000000815260040161061690610a4a565b60405180910390fd5b60008060009054906101000a900473ffffffffffffffffffffffffffffffffffffffff169050816000806101000a81548173ffffffffffffffffffffffffffffffffffffffff021916908373ffffffffffffffffffffffffffffffffffffffff1602179055508173ffffffffffffffffffffffffffffffffffffffff168173ffffffffffffffffffffffffffffffffffffffff167f8be0079c531659141344cd1fd0a4f28419497f9722a3daafe3b4186f6b6457e060405160405180910390a35050565b600080fd5b6000819050919050565b6106fb816106e8565b811461070657600080fd5b50565b600081359050610718816106f2565b92915050565b600060208284031215610734576107336106e3565b5b600061074284828501610709565b91505092915050565b610754816106e8565b82525050565b600060208201905061076f600083018461074b565b92915050565b600073ffffffffffffffffffffffffffffffffffffffff82169050919050565b60006107a082610775565b9050919050565b6107b081610795565b82525050565b60006020820190506107cb60008301846107a7565b92915050565b6107da81610795565b81146107e557600080fd5b50565b6000813590506107f7816107d1565b92915050565b600060208284031215610813576108126106e3565b5b6000610821848285016107e8565b91505092915050565b600082825260208201905092915050565b7f596f7520617265206e6f7420746865206f776e6572206f66207468697320616360008201527f636f756e74000000000000000000000000000000000000000000000000000000602082015250565b600061089760258361082a565b91506108a28261083b565b604082019050919050565b600060208201905081810360008301526108c68161088a565b9050919050565b7f4e487b7100000000000000000000000000000000000000000000000000000000600052601160045260246000fd5b6000610907826106e8565b9150610912836106e8565b9250828202610920816106e8565b91508282048414831517610937576109366108cd565b5b5092915050565b7f4e487b7100000000000000000000000000000000000000000000000000000000600052600160045260246000fd5b6000604082019050610982600083018561074b565b61098f602083018461074b565b9392505050565b60006109a1826106e8565b91506109ac836106e8565b92508282039050818111156109c4576109c36108cd565b5b92915050565b60006109d5826106e8565b91506109e0836106e8565b92508282019050808211156109f8576109f76108cd565b5b92915050565b7f496e76616c6964206e6577206f776e6572206164647265737300000000000000600082015250565b6000610a3460198361082a565b9150610a3f826109fe565b602082019050919050565b60006020820190508181036000830152610a6381610a27565b905091905056fea264697066735822122016d11d3fc8134b0ba225e3073ccfbe75842229a5098232883736297b75974adf64736f6c63430008110033",
  "linkReferences": {},
  "deployedLinkReferences": {}
}